S019000066696E616C2070726F6A656374204D43322E7372656308
S11300000C942A000C9434000C9434000C943400A6
S11300100C9434000C9434000C9434000C9434008C
S11300200C9434000C9434000C9434000C9434007C
S11300300C9434000C9434000C9434000C9434006C
S11300400C9434000C9434000C9434000C9434005C
S11300500C94340011241FBECFE5D8E0DEBFCDBF21
S11300600E94A8000C94D8000C940000442379F159
S1130070413009F05FC0813079F028F08230A9F076
S11300808330E1F008952AB381E090E001C0880F45
S11300906A95EAF7822B2CC027B381E090E001C077
S11300A0880F6A95EAF7822B2EC024B381E090E092
S11300B001C0880F6A95EAF7822B30C021B381E032
S11300C090E001C0880F6A95EAF7822B32C0813034
S11300D089F028F08230C9F0833011F108952AB3F1
S11300E081E090E001C0880F6A95EAF78095822349
S11300F08ABB089527B381E090E001C0880F6A9518
S1130100EAF78095822387BB089524B381E090E0C9
S113011001C0880F6A95EAF78095822384BB08950D
S113012021B381E090E001C0880F6A95EAF78095D9
S1130130822381BB08958B9A089592B388E089271E
S113014082BB0895A79A089585B3805885BB089506
S11301500E94A2000E949B000E94BB0080E00E94BB
S1130160D100813019F40E949D00F8CF8230B1F79C
S11301700E94A400F3CF40E064E081E00E943600D6
S113018040E065E081E00E94360041E066E081E005
S11301900E94360040E067E081E00E9436006E9ADB
S11301A008959FB1892B8FB9779BFECF8FB10895A6
S10701B0F894FFCFED
S9030000FC
